{
  "_format": "hh-sol-artifact-1",
  "contractName": "MesonCreditV1",
  "sourceName": "contracts/MesonCredit.sol",
  "abi": [
    {
      "inputs": [],
      "stateMutability": "nonpayable",
      "type": "constructor"
    },
    {
      "anonymous": false,
      "inputs": [
        {
          "indexed": true,
          "internalType": "address",
          "name": "owner",
          "type": "address"
        },
        {
          "indexed": true,
          "internalType": "address",
          "name": "spender",
          "type": "address"
        },
        {
          "indexed": false,
          "internalType": "uint256",
          "name": "value",
          "type": "uint256"
        }
      ],
      "name": "Approval",
      "type": "event"
    },
    {
      "anonymous": false,
      "inputs": [
        {
          "indexed": true,
          "internalType": "address",
          "name": "_from",
          "type": "address"
        },
        {
          "indexed": false,
          "internalType": "uint256",
          "name": "_amount",
          "type": "uint256"
        },
        {
          "indexed": false,
          "internalType": "uint256",
          "name": "_pairIndex",
          "type": "uint256"
        },
        {
          "indexed": false,
          "internalType": "string",
          "name": "_symbol",
          "type": "string"
        },
        {
          "indexed": false,
          "internalType": "address",
          "name": "_contractAddress",
          "type": "address"
        },
        {
          "indexed": false,
          "internalType": "uint256",
          "name": "_multiplier",
          "type": "uint256"
        },
        {
          "indexed": false,
          "internalType": "bool",
          "name": "_divisionFlag",
          "type": "bool"
        }
      ],
      "name": "BMEMint",
      "type": "event"
    },
    {
      "anonymous": false,
      "inputs": [
        {
          "indexed": false,
          "internalType": "uint8",
          "name": "version",
          "type": "uint8"
        }
      ],
      "name": "Initialized",
      "type": "event"
    },
    {
      "anonymous": false,
      "inputs": [
        {
          "indexed": true,
          "internalType": "address",
          "name": "previousOwner",
          "type": "address"
        },
        {
          "indexed": true,
          "internalType": "address",
          "name": "newOwner",
          "type": "address"
        }
      ],
      "name": "OwnershipTransferred",
      "type": "event"
    },
    {
      "anonymous": false,
      "inputs": [
        {
          "indexed": true,
          "internalType": "address",
          "name": "from",
          "type": "address"
        },
        {
          "indexed": true,
          "internalType": "address",
          "name": "to",
          "type": "address"
        },
        {
          "indexed": false,
          "internalType": "uint256",
          "name": "value",
          "type": "uint256"
        }
      ],
      "name": "Transfer",
      "type": "event"
    },
    {
      "inputs": [
        {
          "internalType": "uint256",
          "name": "pairIndex",
          "type": "uint256"
        },
        {
          "internalType": "uint256",
          "name": "amount",
          "type": "uint256"
        }
      ],
      "name": "BME",
      "outputs": [],
      "stateMutability": "nonpayable",
      "type": "function"
    },
    {
      "inputs": [
        {
          "internalType": "address",
          "name": "owner",
          "type": "address"
        },
        {
          "internalType": "address",
          "name": "spender",
          "type": "address"
        }
      ],
      "name": "allowance",
      "outputs": [
        {
          "internalType": "uint256",
          "name": "",
          "type": "uint256"
        }
      ],
      "stateMutability": "view",
      "type": "function"
    },
    {
      "inputs": [
        {
          "internalType": "address",
          "name": "spender",
          "type": "address"
        },
        {
          "internalType": "uint256",
          "name": "amount",
          "type": "uint256"
        }
      ],
      "name": "approve",
      "outputs": [
        {
          "internalType": "bool",
          "name": "",
          "type": "bool"
        }
      ],
      "stateMutability": "nonpayable",
      "type": "function"
    },
    {
      "inputs": [
        {
          "internalType": "address",
          "name": "account",
          "type": "address"
        }
      ],
      "name": "balanceOf",
      "outputs": [
        {
          "internalType": "uint256",
          "name": "",
          "type": "uint256"
        }
      ],
      "stateMutability": "view",
      "type": "function"
    },
    {
      "inputs": [
        {
          "internalType": "uint256",
          "name": "pairIndex",
          "type": "uint256"
        },
        {
          "internalType": "uint256",
          "name": "amount",
          "type": "uint256"
        },
        {
          "internalType": "address",
          "name": "to",
          "type": "address"
        }
      ],
      "name": "claim",
      "outputs": [],
      "stateMutability": "nonpayable",
      "type": "function"
    },
    {
      "inputs": [
        {
          "internalType": "address",
          "name": "contractAddress",
          "type": "address"
        },
        {
          "internalType": "string",
          "name": "symbol",
          "type": "string"
        },
        {
          "internalType": "uint256",
          "name": "multiplier",
          "type": "uint256"
        },
        {
          "internalType": "bool",
          "name": "divisionFlag",
          "type": "bool"
        }
      ],
      "name": "createBMEPair",
      "outputs": [],
      "stateMutability": "nonpayable",
      "type": "function"
    },
    {
      "inputs": [],
      "name": "decimals",
      "outputs": [
        {
          "internalType": "uint8",
          "name": "",
          "type": "uint8"
        }
      ],
      "stateMutability": "view",
      "type": "function"
    },
    {
      "inputs": [
        {
          "internalType": "address",
          "name": "spender",
          "type": "address"
        },
        {
          "internalType": "uint256",
          "name": "subtractedValue",
          "type": "uint256"
        }
      ],
      "name": "decreaseAllowance",
      "outputs": [
        {
          "internalType": "bool",
          "name": "",
          "type": "bool"
        }
      ],
      "stateMutability": "nonpayable",
      "type": "function"
    },
    {
      "inputs": [
        {
          "internalType": "address",
          "name": "spender",
          "type": "address"
        },
        {
          "internalType": "uint256",
          "name": "addedValue",
          "type": "uint256"
        }
      ],
      "name": "increaseAllowance",
      "outputs": [
        {
          "internalType": "bool",
          "name": "",
          "type": "bool"
        }
      ],
      "stateMutability": "nonpayable",
      "type": "function"
    },
    {
      "inputs": [],
      "name": "initialize",
      "outputs": [],
      "stateMutability": "nonpayable",
      "type": "function"
    },
    {
      "inputs": [],
      "name": "name",
      "outputs": [
        {
          "internalType": "string",
          "name": "",
          "type": "string"
        }
      ],
      "stateMutability": "view",
      "type": "function"
    },
    {
      "inputs": [],
      "name": "owner",
      "outputs": [
        {
          "internalType": "address",
          "name": "",
          "type": "address"
        }
      ],
      "stateMutability": "view",
      "type": "function"
    },
    {
      "inputs": [
        {
          "internalType": "uint256",
          "name": "",
          "type": "uint256"
        }
      ],
      "name": "pairs",
      "outputs": [
        {
          "internalType": "address",
          "name": "ContractAddress",
          "type": "address"
        },
        {
          "internalType": "string",
          "name": "Symbol",
          "type": "string"
        },
        {
          "internalType": "uint256",
          "name": "Multiplier",
          "type": "uint256"
        },
        {
          "internalType": "bool",
          "name": "DivisionFlag",
          "type": "bool"
        },
        {
          "internalType": "bool",
          "name": "Pause",
          "type": "bool"
        }
      ],
      "stateMutability": "view",
      "type": "function"
    },
    {
      "inputs": [],
      "name": "pairsIndex",
      "outputs": [
        {
          "internalType": "uint256",
          "name": "",
          "type": "uint256"
        }
      ],
      "stateMutability": "view",
      "type": "function"
    },
    {
      "inputs": [
        {
          "internalType": "string",
          "name": "",
          "type": "string"
        }
      ],
      "name": "pairsSymbol2Index",
      "outputs": [
        {
          "internalType": "uint256",
          "name": "",
          "type": "uint256"
        }
      ],
      "stateMutability": "view",
      "type": "function"
    },
    {
      "inputs": [],
      "name": "renounceOwnership",
      "outputs": [],
      "stateMutability": "nonpayable",
      "type": "function"
    },
    {
      "inputs": [],
      "name": "symbol",
      "outputs": [
        {
          "internalType": "string",
          "name": "",
          "type": "string"
        }
      ],
      "stateMutability": "view",
      "type": "function"
    },
    {
      "inputs": [],
      "name": "totalSupply",
      "outputs": [
        {
          "internalType": "uint256",
          "name": "",
          "type": "uint256"
        }
      ],
      "stateMutability": "view",
      "type": "function"
    },
    {
      "inputs": [
        {
          "internalType": "address",
          "name": "to",
          "type": "address"
        },
        {
          "internalType": "uint256",
          "name": "amount",
          "type": "uint256"
        }
      ],
      "name": "transfer",
      "outputs": [
        {
          "internalType": "bool",
          "name": "",
          "type": "bool"
        }
      ],
      "stateMutability": "nonpayable",
      "type": "function"
    },
    {
      "inputs": [
        {
          "internalType": "address",
          "name": "from",
          "type": "address"
        },
        {
          "internalType": "address",
          "name": "to",
          "type": "address"
        },
        {
          "internalType": "uint256",
          "name": "amount",
          "type": "uint256"
        }
      ],
      "name": "transferFrom",
      "outputs": [
        {
          "internalType": "bool",
          "name": "",
          "type": "bool"
        }
      ],
      "stateMutability": "nonpayable",
      "type": "function"
    },
    {
      "inputs": [
        {
          "internalType": "address",
          "name": "newOwner",
          "type": "address"
        }
      ],
      "name": "transferOwnership",
      "outputs": [],
      "stateMutability": "nonpayable",
      "type": "function"
    },
    {
      "inputs": [
        {
          "internalType": "uint256",
          "name": "pairIndex",
          "type": "uint256"
        },
        {
          "internalType": "address",
          "name": "contractAddress",
          "type": "address"
        },
        {
          "internalType": "string",
          "name": "symbol",
          "type": "string"
        },
        {
          "internalType": "uint256",
          "name": "multiplier",
          "type": "uint256"
        },
        {
          "internalType": "bool",
          "name": "divisionFlag",
          "type": "bool"
        },
        {
          "internalType": "bool",
          "name": "pause",
          "type": "bool"
        }
      ],
      "name": "updateBMEPair",
      "outputs": [],
      "stateMutability": "nonpayable",
      "type": "function"
    }
  ],
  "bytecode": "0x60806040523480156200001157600080fd5b50620000226200002860201b60201c565b620001d2565b600060019054906101000a900460ff16156200007b576040517f08c379a0000000000000000000000000000000000000000000000000000000008152600401620000729062000175565b60405180910390fd5b60ff801660008054906101000a900460ff1660ff1614620000ec5760ff6000806101000a81548160ff021916908360ff1602179055507f7f26b83ff96e1f2b6a682f133852f6798a09c465da95921460cefb384740249860ff604051620000e39190620001b5565b60405180910390a15b565b600082825260208201905092915050565b7f496e697469616c697a61626c653a20636f6e747261637420697320696e69746960008201527f616c697a696e6700000000000000000000000000000000000000000000000000602082015250565b60006200015d602783620000ee565b91506200016a82620000ff565b604082019050919050565b6000602082019050818103600083015262000190816200014e565b9050919050565b600060ff82169050919050565b620001af8162000197565b82525050565b6000602082019050620001cc6000830184620001a4565b92915050565b6132e380620001e26000396000f3fe608060405234801561001057600080fd5b50600436106101425760003560e01c806395d89b41116100b8578063b91ac7881161007c578063b91ac78814610367578063c009ff921461039b578063dadf40de146103b7578063dd62ed3e146103e7578063ea64dbb614610417578063f2fde38b1461043357610142565b806395d89b41146102af578063962cfcbd146102cd578063a457c2d7146102eb578063a9059cbb1461031b578063ac44ff311461034b57610142565b8063313ce5671161010a578063313ce567146101ff578063395093511461021d57806370a082311461024d578063715018a61461027d5780638129fc1c146102875780638da5cb5b1461029157610142565b8063020d6eab1461014757806306fdde0314610163578063095ea7b31461018157806318160ddd146101b157806323b872dd146101cf575b600080fd5b610161600480360381019061015c9190612088565b61044f565b005b61016b6105a3565b604051610178919061218a565b60405180910390f35b61019b600480360381019061019691906121ac565b610635565b6040516101a891906121fb565b60405180910390f35b6101b9610658565b6040516101c69190612225565b60405180910390f35b6101e960048036038101906101e49190612240565b610662565b6040516101f691906121fb565b60405180910390f35b610207610691565b60405161021491906122af565b60405180910390f35b610237600480360381019061023291906121ac565b61069a565b60405161024491906121fb565b60405180910390f35b610267600480360381019061026291906122ca565b6106d1565b6040516102749190612225565b60405180910390f35b61028561071a565b005b61028f61072e565b005b6102996108e0565b6040516102a69190612306565b60405180910390f35b6102b761090a565b6040516102c4919061218a565b60405180910390f35b6102d561099c565b6040516102e29190612225565b60405180910390f35b610305600480360381019061030091906121ac565b6109a2565b60405161031291906121fb565b60405180910390f35b610335600480360381019061033091906121ac565b610a19565b60405161034291906121fb565b60405180910390f35b61036560048036038101906103609190612321565b610a3c565b005b610381600480360381019061037c9190612374565b610c8a565b6040516103929594939291906123a1565b60405180910390f35b6103b560048036038101906103b091906123fb565b610d82565b005b6103d160048036038101906103cc919061243b565b61110b565b6040516103de9190612225565b60405180910390f35b61040160048036038101906103fc9190612484565b611139565b60405161040e9190612225565b60405180910390f35b610431600480360381019061042c91906124c4565b6111c0565b005b61044d600480360381019061044891906122ca565b6114b7565b005b61045761153a565b60006040518060a001604052808673ffffffffffffffffffffffffffffffffffffffff16815260200185815260200184815260200183151581526020016000151581525090506001609760008282546104b0919061259c565b925050819055508060986000609754815260200190815260200160002060008201518160000160006101000a81548173ffffffffffffffffffffffffffffffffffffffff021916908373ffffffffffffffffffffffffffffffffffffffff160217905550602082015181600101908161052991906127dc565b506040820151816002015560608201518160030160006101000a81548160ff02191690831515021790555060808201518160030160016101000a81548160ff02191690831515021790555090505060975460998560405161058a91906128ea565b9081526020016040518091039020819055505050505050565b6060603680546105b2906125ff565b80601f01602080910402602001604051908101604052809291908181526020018280546105de906125ff565b801561062b5780601f106106005761010080835404028352916020019161062b565b820191906000526020600020905b81548152906001019060200180831161060e57829003601f168201915b5050505050905090565b6000806106406115b8565b905061064d8185856115c0565b600191505092915050565b6000603554905090565b60008061066d6115b8565b905061067a858285611789565b610685858585611815565b60019150509392505050565b60006012905090565b6000806106a56115b8565b90506106c68185856106b78589611139565b6106c1919061259c565b6115c0565b600191505092915050565b6000603360008373ffffffffffffffffffffffffffffffffffffffff1673ffffffffffffffffffffffffffffffffffffffff168152602001908152602001600020549050919050565b61072261153a565b61072c6000611a8e565b565b60008060019054906101000a900460ff1615905080801561075f5750600160008054906101000a900460ff1660ff16105b8061078c575061076e30611b54565b15801561078b5750600160008054906101000a900460ff1660ff16145b5b6107cb576040517f08c379a00000000000000000000000000000000000000000000000000000000081526004016107c290612973565b60405180910390fd5b60016000806101000a81548160ff021916908360ff1602179055508015610808576001600060016101000a81548160ff0219169083151502179055505b61087c6040518060400160405280600c81526020017f4d65736f6e2043726564697400000000000000000000000000000000000000008152506040518060400160405280600281526020017f4d43000000000000000000000000000000000000000000000000000000000000815250611b77565b610884611bd4565b80156108dd5760008060016101000a81548160ff0219169083151502179055507f7f26b83ff96e1f2b6a682f133852f6798a09c465da95921460cefb384740249860016040516108d491906129ce565b60405180910390a15b50565b6000606560009054906101000a900473ffffffffffffffffffffffffffffffffffffffff16905090565b606060378054610919906125ff565b80601f0160208091040260200160405190810160405280929190818152602001828054610945906125ff565b80156109925780601f1061096757610100808354040283529160200191610992565b820191906000526020600020905b81548152906001019060200180831161097557829003601f168201915b5050505050905090565b60975481565b6000806109ad6115b8565b905060006109bb8286611139565b905083811015610a00576040517f08c379a00000000000000000000000000000000000000000000000000000000081526004016109f790612a5b565b60405180910390fd5b610a0d82868684036115c0565b60019250505092915050565b600080610a246115b8565b9050610a31818585611815565b600191505092915050565b610a4461153a565b6000609860008581526020019081526020016000206040518060a00160405290816000820160009054906101000a900473ffffffffffffffffffffffffffffffffffffffff1673ffffffffffffffffffffffffffffffffffffffff1673ffffffffffffffffffffffffffffffffffffffff168152602001600182018054610aca906125ff565b80601f0160208091040260200160405190810160405280929190818152602001828054610af6906125ff565b8015610b435780601f10610b1857610100808354040283529160200191610b43565b820191906000526020600020905b815481529060010190602001808311610b2657829003601f168201915b50505050508152602001600282015481526020016003820160009054906101000a900460ff161515151581526020016003820160019054906101000a900460ff1615151515815250509050600073ffffffffffffffffffffffffffffffffffffffff16816000015173ffffffffffffffffffffffffffffffffffffffff1603610c01576040517f08c379a0000000000000000000000000000000000000000000000000000000008152600401610bf890612ac7565b60405180910390fd5b806000015173ffffffffffffffffffffffffffffffffffffffff1663a9059cbb83856040518363ffffffff1660e01b8152600401610c40929190612ae7565b6020604051808303816000875af1158015610c5f573d6000803e3d6000fd5b505050506040513d601f19601f82011682018060405250810190610c839190612b25565b5050505050565b60986020528060005260406000206000915090508060000160009054906101000a900473ffffffffffffffffffffffffffffffffffffffff1690806001018054610cd3906125ff565b80601f0160208091040260200160405190810160405280929190818152602001828054610cff906125ff565b8015610d4c5780601f10610d2157610100808354040283529160200191610d4c565b820191906000526020600020905b815481529060010190602001808311610d2f57829003601f168201915b5050505050908060020154908060030160009054906101000a900460ff16908060030160019054906101000a900460ff16905085565b6000609860008481526020019081526020016000206040518060a00160405290816000820160009054906101000a900473ffffffffffffffffffffffffffffffffffffffff1673ffffffffffffffffffffffffffffffffffffffff1673ffffffffffffffffffffffffffffffffffffffff168152602001600182018054610e08906125ff565b80601f0160208091040260200160405190810160405280929190818152602001828054610e34906125ff565b8015610e815780601f10610e5657610100808354040283529160200191610e81565b820191906000526020600020905b815481529060010190602001808311610e6457829003601f168201915b50505050508152602001600282015481526020016003820160009054906101000a900460ff161515151581526020016003820160019054906101000a900460ff1615151515815250509050600073ffffffffffffffffffffffffffffffffffffffff16816000015173ffffffffffffffffffffffffffffffffffffffff1603610f3f576040517f08c379a0000000000000000000000000000000000000000000000000000000008152600401610f3690612ac7565b60405180910390fd5b600015158160800151151514610f8a576040517f08c379a0000000000000000000000000000000000000000000000000000000008152600401610f8190612b9e565b60405180910390fd5b6000816000015173ffffffffffffffffffffffffffffffffffffffff166323b872dd3330866040518463ffffffff1660e01b8152600401610fcd93929190612bbe565b6020604051808303816000875af1158015610fec573d6000803e3d6000fd5b505050506040513d601f19601f820116820180604052508101906110109190612b25565b90506001151581151514611059576040517f08c379a000000000000000000000000000000000000000000000000000000000815260040161105090612c41565b60405180910390fd5b600115158260600151151503611080578160400151836110799190612c90565b9250611093565b8160400151836110909190612cc1565b92505b61109d3384611c2d565b3373ffffffffffffffffffffffffffffffffffffffff167fc020f4bdc47b372659cdefe3e85f7f1f7f3cc059160d40f793914d20facb9cd2848685602001518660000151876040015188606001516040516110fd96959493929190612d03565b60405180910390a250505050565b6099818051602081018201805184825260208301602085012081835280955050505050506000915090505481565b6000603460008473ffffffffffffffffffffffffffffffffffffffff1673ffffffffffffffffffffffffffffffffffffffff16815260200190815260200160002060008373ffffffffffffffffffffffffffffffffffffffff1673ffffffffffffffffffffffffffffffffffffffff16815260200190815260200160002054905092915050565b6111c861153a565b6000609860008881526020019081526020016000206040518060a00160405290816000820160009054906101000a900473ffffffffffffffffffffffffffffffffffffffff1673ffffffffffffffffffffffffffffffffffffffff1673ffffffffffffffffffffffffffffffffffffffff16815260200160018201805461124e906125ff565b80601f016020809104026020016040519081016040528092919081815260200182805461127a906125ff565b80156112c75780601f1061129c576101008083540402835291602001916112c7565b820191906000526020600020905b8154815290600101906020018083116112aa57829003601f168201915b50505050508152602001600282015481526020016003820160009054906101000a900460ff161515151581526020016003820160019054906101000a900460ff1615151515815250509050600073ffffffffffffffffffffffffffffffffffffffff16816000015173ffffffffffffffffffffffffffffffffffffffff1603611385576040517f08c379a000000000000000000000000000000000000000000000000000000000815260040161137c90612ac7565b60405180910390fd5b60006040518060a001604052808873ffffffffffffffffffffffffffffffffffffffff1681526020018781526020018681526020018515158152602001841515815250905080609860008a815260200190815260200160002060008201518160000160006101000a81548173ffffffffffffffffffffffffffffffffffffffff021916908373ffffffffffffffffffffffffffffffffffffffff160217905550602082015181600101908161143a91906127dc565b506040820151816002015560608201518160030160006101000a81548160ff02191690831515021790555060808201518160030160016101000a81548160ff02191690831515021790555090505060975460998760405161149b91906128ea565b9081526020016040518091039020819055505050505050505050565b6114bf61153a565b600073ffffffffffffffffffffffffffffffffffffffff168173ffffffffffffffffffffffffffffffffffffffff160361152e576040517f08c379a000000000000000000000000000000000000000000000000000000000815260040161152590612ddd565b60405180910390fd5b61153781611a8e565b50565b6115426115b8565b73ffffffffffffffffffffffffffffffffffffffff166115606108e0565b73ffffffffffffffffffffffffffffffffffffffff16146115b6576040517f08c379a00000000000000000000000000000000000000000000000000000000081526004016115ad90612e49565b60405180910390fd5b565b600033905090565b600073ffffffffffffffffffffffffffffffffffffffff168373ffffffffffffffffffffffffffffffffffffffff160361162f576040517f08c379a000000000000000000000000000000000000000000000000000000000815260040161162690612edb565b60405180910390fd5b600073ffffffffffffffffffffffffffffffffffffffff168273ffffffffffffffffffffffffffffffffffffffff160361169e576040517f08c379a000000000000000000000000000000000000000000000000000000000815260040161169590612f6d565b60405180910390fd5b80603460008573ffffffffffffffffffffffffffffffffffffffff1673ffffffffffffffffffffffffffffffffffffffff16815260200190815260200160002060008473ffffffffffffffffffffffffffffffffffffffff1673ffffffffffffffffffffffffffffffffffffffff168152602001908152602001600020819055508173ffffffffffffffffffffffffffffffffffffffff168373ffffffffffffffffffffffffffffffffffffffff167f8c5be1e5ebec7d5bd14f71427d1e84f3dd0314c0f7b2291e5b200ac8c7c3b9258360405161177c9190612225565b60405180910390a3505050565b60006117958484611139565b90507fffffffffffffffffffffffffffffffffffffffffffffffffffffffffffffffff811461180f5781811015611801576040517f08c379a00000000000000000000000000000000000000000000000000000000081526004016117f890612fd9565b60405180910390fd5b61180e84848484036115c0565b5b50505050565b600073ffffffffffffffffffffffffffffffffffffffff168373ffffffffffffffffffffffffffffffffffffffff1603611884576040517f08c379a000000000000000000000000000000000000000000000000000000000815260040161187b9061306b565b60405180910390fd5b600073ffffffffffffffffffffffffffffffffffffffff168273ffffffffffffffffffffffffffffffffffffffff16036118f3576040517f08c379a00000000000000000000000000000000000000000000000000000000081526004016118ea906130fd565b60405180910390fd5b6118fe838383611d84565b6000603360008573ffffffffffffffffffffffffffffffffffffffff1673ffffffffffffffffffffffffffffffffffffffff16815260200190815260200160002054905081811015611985576040517f08c379a000000000000000000000000000000000000000000000000000000000815260040161197c9061318f565b60405180910390fd5b818103603360008673ffffffffffffffffffffffffffffffffffffffff1673ffffffffffffffffffffffffffffffffffffffff1681526020019081526020016000208190555081603360008573ffffffffffffffffffffffffffffffffffffffff1673ffffffffffffffffffffffffffffffffffffffff168152602001908152602001600020600082825401925050819055508273ffffffffffffffffffffffffffffffffffffffff168473ffffffffffffffffffffffffffffffffffffffff167fddf252ad1be2c89b69c2b068fc378daa952ba7f163c4a11628f55a4df523b3ef84604051611a759190612225565b60405180910390a3611a88848484611d89565b50505050565b6000606560009054906101000a900473ffffffffffffffffffffffffffffffffffffffff16905081606560006101000a81548173ffffffffffffffffffffffffffffffffffffffff021916908373ffffffffffffffffffffffffffffffffffffffff1602179055508173ffffffffffffffffffffffffffffffffffffffff168173ffffffffffffffffffffffffffffffffffffffff167f8be0079c531659141344cd1fd0a4f28419497f9722a3daafe3b4186f6b6457e060405160405180910390a35050565b6000808273ffffffffffffffffffffffffffffffffffffffff163b119050919050565b600060019054906101000a900460ff16611bc6576040517f08c379a0000000000000000000000000000000000000000000000000000000008152600401611bbd90613221565b60405180910390fd5b611bd08282611d8e565b5050565b600060019054906101000a900460ff16611c23576040517f08c379a0000000000000000000000000000000000000000000000000000000008152600401611c1a90613221565b60405180910390fd5b611c2b611e01565b565b600073ffffffffffffffffffffffffffffffffffffffff168273ffffffffffffffffffffffffffffffffffffffff1603611c9c576040517f08c379a0000000000000000000000000000000000000000000000000000000008152600401611c939061328d565b60405180910390fd5b611ca860008383611d84565b8060356000828254611cba919061259c565b9250508190555080603360008473ffffffffffffffffffffffffffffffffffffffff1673ffffffffffffffffffffffffffffffffffffffff168152602001908152602001600020600082825401925050819055508173ffffffffffffffffffffffffffffffffffffffff16600073ffffffffffffffffffffffffffffffffffffffff167fddf252ad1be2c89b69c2b068fc378daa952ba7f163c4a11628f55a4df523b3ef83604051611d6c9190612225565b60405180910390a3611d8060008383611d89565b5050565b505050565b505050565b600060019054906101000a900460ff16611ddd576040517f08c379a0000000000000000000000000000000000000000000000000000000008152600401611dd490613221565b60405180910390fd5b8160369081611dec91906127dc565b508060379081611dfc91906127dc565b505050565b600060019054906101000a900460ff16611e50576040517f08c379a0000000000000000000000000000000000000000000000000000000008152600401611e4790613221565b60405180910390fd5b611e60611e5b6115b8565b611a8e565b565b6000604051905090565b600080fd5b600080fd5b600073ffffffffffffffffffffffffffffffffffffffff82169050919050565b6000611ea182611e76565b9050919050565b611eb181611e96565b8114611ebc57600080fd5b50565b600081359050611ece81611ea8565b92915050565b600080fd5b600080fd5b6000601f19601f8301169050919050565b7f4e487b7100000000000000000000000000000000000000000000000000000000600052604160045260246000fd5b611f2782611ede565b810181811067ffffffffffffffff82111715611f4657611f45611eef565b5b80604052505050565b6000611f59611e62565b9050611f658282611f1e565b919050565b600067ffffffffffffffff821115611f8557611f84611eef565b5b611f8e82611ede565b9050602081019050919050565b82818337600083830152505050565b6000611fbd611fb884611f6a565b611f4f565b905082815260208101848484011115611fd957611fd8611ed9565b5b611fe4848285611f9b565b509392505050565b600082601f83011261200157612000611ed4565b5b8135612011848260208601611faa565b91505092915050565b6000819050919050565b61202d8161201a565b811461203857600080fd5b50565b60008135905061204a81612024565b92915050565b60008115159050919050565b61206581612050565b811461207057600080fd5b50565b6000813590506120828161205c565b92915050565b600080600080608085870312156120a2576120a1611e6c565b5b60006120b087828801611ebf565b945050602085013567ffffffffffffffff8111156120d1576120d0611e71565b5b6120dd87828801611fec565b93505060406120ee8782880161203b565b92505060606120ff87828801612073565b91505092959194509250565b600081519050919050565b600082825260208201905092915050565b60005b8381101561214557808201518184015260208101905061212a565b60008484015250505050565b600061215c8261210b565b6121668185612116565b9350612176818560208601612127565b61217f81611ede565b840191505092915050565b600060208201905081810360008301526121a48184612151565b905092915050565b600080604083850312156121c3576121c2611e6c565b5b60006121d185828601611ebf565b92505060206121e28582860161203b565b9150509250929050565b6121f581612050565b82525050565b600060208201905061221060008301846121ec565b92915050565b61221f8161201a565b82525050565b600060208201905061223a6000830184612216565b92915050565b60008060006060848603121561225957612258611e6c565b5b600061226786828701611ebf565b935050602061227886828701611ebf565b92505060406122898682870161203b565b9150509250925092565b600060ff82169050919050565b6122a981612293565b82525050565b60006020820190506122c460008301846122a0565b92915050565b6000602082840312156122e0576122df611e6c565b5b60006122ee84828501611ebf565b91505092915050565b61230081611e96565b82525050565b600060208201905061231b60008301846122f7565b92915050565b60008060006060848603121561233a57612339611e6c565b5b60006123488682870161203b565b93505060206123598682870161203b565b925050604061236a86828701611ebf565b9150509250925092565b60006020828403121561238a57612389611e6c565b5b60006123988482850161203b565b91505092915050565b600060a0820190506123b660008301886122f7565b81810360208301526123c88187612151565b90506123d76040830186612216565b6123e460608301856121ec565b6123f160808301846121ec565b9695505050505050565b6000806040838503121561241257612411611e6c565b5b60006124208582860161203b565b92505060206124318582860161203b565b9150509250929050565b60006020828403121561245157612450611e6c565b5b600082013567ffffffffffffffff81111561246f5761246e611e71565b5b61247b84828501611fec565b91505092915050565b6000806040838503121561249b5761249a611e6c565b5b60006124a985828601611ebf565b92505060206124ba85828601611ebf565b9150509250929050565b60008060008060008060c087890312156124e1576124e0611e6c565b5b60006124ef89828a0161203b565b965050602061250089828a01611ebf565b955050604087013567ffffffffffffffff81111561252157612520611e71565b5b61252d89828a01611fec565b945050606061253e89828a0161203b565b935050608061254f89828a01612073565b92505060a061256089828a01612073565b9150509295509295509295565b7f4e487b7100000000000000000000000000000000000000000000000000000000600052601160045260246000fd5b60006125a78261201a565b91506125b28361201a565b92508282019050808211156125ca576125c961256d565b5b92915050565b7f4e487b7100000000000000000000000000000000000000000000000000000000600052602260045260246000fd5b6000600282049050600182168061261757607f821691505b60208210810361262a576126296125d0565b5b50919050565b60008190508160005260206000209050919050565b60006020601f8301049050919050565b600082821b905092915050565b6000600883026126927fffffffffffffffffffffffffffffffffffffffffffffffffffffffffffffffff82612655565b61269c8683612655565b95508019841693508086168417925050509392505050565b6000819050919050565b60006126d96126d46126cf8461201a565b6126b4565b61201a565b9050919050565b6000819050919050565b6126f3836126be565b6127076126ff826126e0565b848454612662565b825550505050565b600090565b61271c61270f565b6127278184846126ea565b505050565b5b8181101561274b57612740600082612714565b60018101905061272d565b5050565b601f8211156127905761276181612630565b61276a84612645565b81016020851015612779578190505b61278d61278585612645565b83018261272c565b50505b505050565b600082821c905092915050565b60006127b360001984600802612795565b1980831691505092915050565b60006127cc83836127a2565b9150826002028217905092915050565b6127e58261210b565b67ffffffffffffffff8111156127fe576127fd611eef565b5b61280882546125ff565b61281382828561274f565b600060209050601f8311600181146128465760008415612834578287015190505b61283e85826127c0565b8655506128a6565b601f19841661285486612630565b60005b8281101561287c57848901518255600182019150602085019450602081019050612857565b868310156128995784890151612895601f8916826127a2565b8355505b6001600288020188555050505b505050505050565b600081905092915050565b60006128c48261210b565b6128ce81856128ae565b93506128de818560208601612127565b80840191505092915050565b60006128f682846128b9565b915081905092915050565b7f496e697469616c697a61626c653a20636f6e747261637420697320616c72656160008201527f647920696e697469616c697a6564000000000000000000000000000000000000602082015250565b600061295d602e83612116565b915061296882612901565b604082019050919050565b6000602082019050818103600083015261298c81612950565b9050919050565b6000819050919050565b60006129b86129b36129ae84612993565b6126b4565b612293565b9050919050565b6129c88161299d565b82525050565b60006020820190506129e360008301846129bf565b92915050565b7f45524332303a2064656372656173656420616c6c6f77616e63652062656c6f7760008201527f207a65726f000000000000000000000000000000000000000000000000000000602082015250565b6000612a45602583612116565b9150612a50826129e9565b604082019050919050565b60006020820190508181036000830152612a7481612a38565b9050919050565b7f486173206e6f7420736574207468652070616972206164647265737300000000600082015250565b6000612ab1601c83612116565b9150612abc82612a7b565b602082019050919050565b60006020820190508181036000830152612ae081612aa4565b9050919050565b6000604082019050612afc60008301856122f7565b612b096020830184612216565b9392505050565b600081519050612b1f8161205c565b92915050565b600060208284031215612b3b57612b3a611e6c565b5b6000612b4984828501612b10565b91505092915050565b7f5061697220686173206265656e20706175736564000000000000000000000000600082015250565b6000612b88601483612116565b9150612b9382612b52565b602082019050919050565b60006020820190508181036000830152612bb781612b7b565b9050919050565b6000606082019050612bd360008301866122f7565b612be060208301856122f7565b612bed6040830184612216565b949350505050565b7f4661696c656420746f207472616e7366657220746f6b656e0000000000000000600082015250565b6000612c2b601883612116565b9150612c3682612bf5565b602082019050919050565b60006020820190508181036000830152612c5a81612c1e565b9050919050565b7f4e487b7100000000000000000000000000000000000000000000000000000000600052601260045260246000fd5b6000612c9b8261201a565b9150612ca68361201a565b925082612cb657612cb5612c61565b5b828204905092915050565b6000612ccc8261201a565b9150612cd78361201a565b9250828202612ce58161201a565b91508282048414831517612cfc57612cfb61256d565b5b5092915050565b600060c082019050612d186000830189612216565b612d256020830188612216565b8181036040830152612d378187612151565b9050612d4660608301866122f7565b612d536080830185612216565b612d6060a08301846121ec565b979650505050505050565b7f4f776e61626c653a206e6577206f776e657220697320746865207a65726f206160008201527f6464726573730000000000000000000000000000000000000000000000000000602082015250565b6000612dc7602683612116565b9150612dd282612d6b565b604082019050919050565b60006020820190508181036000830152612df681612dba565b9050919050565b7f4f776e61626c653a2063616c6c6572206973206e6f7420746865206f776e6572600082015250565b6000612e33602083612116565b9150612e3e82612dfd565b602082019050919050565b60006020820190508181036000830152612e6281612e26565b9050919050565b7f45524332303a20617070726f76652066726f6d20746865207a65726f2061646460008201527f7265737300000000000000000000000000000000000000000000000000000000602082015250565b6000612ec5602483612116565b9150612ed082612e69565b604082019050919050565b60006020820190508181036000830152612ef481612eb8565b9050919050565b7f45524332303a20617070726f766520746f20746865207a65726f20616464726560008201527f7373000000000000000000000000000000000000000000000000000000000000602082015250565b6000612f57602283612116565b9150612f6282612efb565b604082019050919050565b60006020820190508181036000830152612f8681612f4a565b9050919050565b7f45524332303a20696e73756666696369656e7420616c6c6f77616e6365000000600082015250565b6000612fc3601d83612116565b9150612fce82612f8d565b602082019050919050565b60006020820190508181036000830152612ff281612fb6565b9050919050565b7f45524332303a207472616e736665722066726f6d20746865207a65726f20616460008201527f6472657373000000000000000000000000000000000000000000000000000000602082015250565b6000613055602583612116565b915061306082612ff9565b604082019050919050565b6000602082019050818103600083015261308481613048565b9050919050565b7f45524332303a207472616e7366657220746f20746865207a65726f206164647260008201527f6573730000000000000000000000000000000000000000000000000000000000602082015250565b60006130e7602383612116565b91506130f28261308b565b604082019050919050565b60006020820190508181036000830152613116816130da565b9050919050565b7f45524332303a207472616e7366657220616d6f756e742065786365656473206260008201527f616c616e63650000000000000000000000000000000000000000000000000000602082015250565b6000613179602683612116565b91506131848261311d565b604082019050919050565b600060208201905081810360008301526131a88161316c565b9050919050565b7f496e697469616c697a61626c653a20636f6e7472616374206973206e6f74206960008201527f6e697469616c697a696e67000000000000000000000000000000000000000000602082015250565b600061320b602b83612116565b9150613216826131af565b604082019050919050565b6000602082019050818103600083015261323a816131fe565b9050919050565b7f45524332303a206d696e7420746f20746865207a65726f206164647265737300600082015250565b6000613277601f83612116565b915061328282613241565b602082019050919050565b600060208201905081810360008301526132a68161326a565b905091905056fea26469706673582212209b30a016ccbc6530065d1c9362d2f461c103c1f6aa8d1daf22cefeffbe73694064736f6c63430008120033",
  "linkReferences": {},
  "deployedLinkReferences": {}
}